:100000000C94960A0C94C00A0C94C00A0C94C00A72
:100010000C94C00A0C94C00A0C94C00A0C94C00A38
:100020000C94C00A0C94C00A0C94C00A0C94C00A28
:100030000C94C00A0C94D3660C94C00A0C94C00AA9
:100040000C94C00A0C94B8650C944E640C94C00ACD
:100050000C94206E0C94C00A0C94C00A0C94C00A34
:100060000C94C00A0C94C00A0C9498640C94C00AB6
:100070000C94C00A0C94C00A0C94C00A0C94C00AD8
:100080000C94C00A0C94C00A0C94C00A084AD73BCE
:100090003BCE016E84BCBFFDC12F3D6C74319ABD57
:1000A00056833DDA3D00C77F11BED9E4BB4C3E917B
:1000B0006BAAAABE000000803F05A84CCDB2D44E6A
:1000C000B93836A9020C50B9918688083CA6AAAA6C
:1000D0002ABE000000803F004E414E494E4954590F
:1000E000494E46CDCCCC3D0AD7233C17B7D1387703
:1000F000CC2B329595E6241FB14F0A000020410019
:1001000000C84200401C4620BCBE4CCA1B0E5AAE62
:10011000C59D7470012C0190012701B0012201C01E
:10012000011D01F00118011002130130020E0160DF
:1001300002090190020401C002FF000003FA00401E
:1001400003F5008003F000D003EB002004E600700C
:1001500004E100E004DC004005D700C005D2004007
:1001600006CD00D006C8008007C3003008BE00F0EE
:1001700008B900C009B400B00AAF00B00BAA00D0A3
:100180000CA500000EA000500F9B00C01096005060
:1001900012910000148C00C0158700B0178200B0C7
:1001A000197D00D01B7800001E730040206E009067
:1001B000226900F024640040275F0090295A00E083
:1001C0002B5500102E500020304B0010324600E01E
:1001D00033410090353C001037370070383200A0B2
:1001E000392D00B03A2800A03B2300603C1E0010CF
:1001F0003D1900903D1400103E0F00703E0A00C0F3
:100200003E0500003F00002200656E717565756552
:10021000696E67202200456E642066696C65206CFB
:1002200069737400426567696E2066696C65206C4D
:10023000697374005344207072696E74696E67202C
:100240006279746520004E6F742053442070726987
:100250006E74696E670044656C6574696F6E2066C4
:1002600061696C65642C2046696C653A20004669BA
:100270006C652064656C657465643A006F70656ECA
:10028000206661696C65642C2046696C653A2000C3
:100290002569206D696E2C202569207365630044F3
:1002A000454255472044525952554E20454E4142F1
:1002B0004C4544004445425547204543484F20455E
:1002C0004E41424C4544002042403A0020403A0012
:1002D000202F00205400202F0020543A006F6B0084
:1002E0003F0020573A0020453A00543A0046495210
:1002F0004D574152455F4E414D453A4D61726C69D3
:100300006E20312E312E3020534F555243455F43DE
:100310004F44455F55524C3A2050524F544F434F33
:100320004C5F56455253494F4E3A312E30204D4185
:100330004348494E455F545950453A334420507222
:10034000696E7465722045585452554445525F4356
:100350004F554E543A3120555549443A303030309B
:10036000303030302D303030302D303030302D3096
:100370003030302D30303030303030303030303080
:100380000A0020453A00205A3A0020593A002043FA
:100390006F756E7420583A200020453A00205A3A72
:1003A0000020593A00583A007A5F6D696E3A200091
:1003B000795F6D696E3A2000785F6D696E3A200052
:1003C00053657474696E672054726176656C204160
:1003D0006363656C65726174696F6E3A2000536582
:1003E0007474696E6720526574726163742041632E
:1003F00063656C65726174696F6E3A200053657451
:1004000074696E67205072696E7420416363656C15
:1004100065726174696F6E3A200053657474696E19
:1004200067205072696E7420616E64205472617628
:10043000656C20416363656C65726174696F6E3AC7
:100440002000546F6F206661722066726F6D20729B
:1004500065666572656E636520706F696E740022F3
:100460000A00556E6B6E6F776E20636F6D6D616EF7
:10047000643A202200526573656E643A20006F6B07
:100480000020496E76616C696420657874727564C9
:10049000657220000000C8420000C8420000C84247
:1004A000000000000000000000000000000000004C
:1004B00000000000000000005761726E696E673A2C
:1004C00020486F6D696E672042756D7020446976B3
:1004D00069736F72203C2031000000A0400000A032
:1004E000400000A0400000C8420000C8420000C810
:1004F00042FFFFFF4D383420582059205A20450034
:10050000256920686F757273202569206D696E7585
:1005100074657300446F6E65207072696E74696EE5
:10052000672066696C65005072696E74657220732D
:10053000746F707065642064756520746F206572D7
:10054000726F72732E204669782074686520657218
:10055000726F7220616E6420757365204D39393970
:1005600020746F20726573746172742E2028546534
:100570006D70657261747572652069732072657340
:1005800065742E20536574206974206166746572E9
:100590002072657374617274696E6729004E6F20F2
:1005A0004C696E65204E756D62657220776974685E
:1005B00020636865636B73756D2C204C61737420C8
:1005C0004C696E653A20004E6F20436865636B731B
:1005D000756D2077697468206C696E65206E756D25
:1005E0006265722C204C617374204C696E653A20F0
:1005F00000636865636B73756D206D69736D6174FD
:1006000063682C204C617374204C696E653A20003D
:100610004C696E65204E756D626572206973206E3F
:100620006F74204C617374204C696E65204E756D3B
:100630006265722B312C204C617374204C696E659D
:100640003A20004D313130007C3C3E5E2B3D3F2F47
:100650005B5D3B2C2A225C0048617264636F6465B9
:10066000642044656661756C742053657474696EAA
:100670006773204C6F616465640020204D32303018
:100680002044300020204D32303020440020446986
:100690007361626C65640046696C616D656E74209F
:1006A00073657474696E67733A00204C00204300D0
:1006B00020440020490020204D333031205000508C
:1006C00049442073657474696E67733A00205A0058
:1006D00020590020204D323036205800486F6D657B
:1006E000206F666673657420286D6D293A00204579
:1006F00000205A0020580020420020540020204DA5
:10070000323035205300416476616E636564207633
:1007100061726961626C65733A20533D4D696E2068
:10072000666565647261746520286D6D2F73292C70
:1007300020543D4D696E2074726176656C2066654B
:1007400065647261746520286D6D2F73292C2042B9
:100750003D6D696E696D756D207365676D656E744D
:100760002074696D6520286D73292C20583D6D61BA
:1007700078696D756D205859206A65726B20286DF7
:100780006D2F73292C20205A3D6D6178696D756D30
:10079000205A206A65726B20286D6D2F73292C20DA
:1007A00020453D6D6178696D756D2045206A6572E3
:1007B0006B20286D6D2F73290020540020520020DB
:1007C000204D323034205000416363656C657261A6
:1007D00074696F6E733A20503D7072696E74696E01
:1007E000672C20523D7265747261637420616E647F
:1007F00020543D74726176656C00204500205A00DB
:1008000020590020204D3230312058004D61786948
:100810006D756D20416363656C65726174696F6E9F
:1008200020286D6D2F7332293A00204500205A0090
:1008300020590020204D3230332058004D61786916
:100840006D756D2066656564726174657320286DD1
:100850006D2F73293A00204500205A0020590020AE
:10086000204D3932205800537465707320706572C2
:1008700020756E69743A0024F4D43050C38E20C2BF
:10088000A24017828B7011127A910D816CD90AA83F
:1008900061E108C7586607615143061E4B5D05C1FB
:1008A00045A7041A411104093D98037139310340E9
:1008B00036DB0265339102D4305402802E1D026370
:1008C0002CEE01752AC501B028A001102781018FE7
:1008D0002564012B244B01E0223401AC211F018D42
:1008E000200D01801FFC00841EED00971DDF00B865
:1008F0001CD200E61BC600201BBC00641AB200B26A
:1009000019A8000A19A0006A189900D1179100408F
:10091000178B00B516840031167E00B31579003AA6
:10092000157300C7146F0058146A00EE1366008830
:1009300013630025135E00C7125B006C125700158D
:10094000125400C111510070114F0021114B00D6FB
:100950001049008D1047004610440002104200C0AC
:100960000F4000800F3E00420F3C00060F3B00CBC3
:100970000E3800930E37005C0E3500270E3400F35E
:100980000D3200C10D3100900D3000600D2E00328F
:100990000D2D00050D2C00D90C2B00AE0C29008567
:1009A0000C29005C0C2700350C27000E0C2600E8F3
:1009B0000B2400C40B2400A00B23007D0B23005A42
:1009C0000B2100390B2100180B2000F80A1F00D959
:1009D0000A1E00BB0A1E009D0A1D00800A1D00633E
:1009E0000A1C00470A1B002C0A1B00110A1A00F7F8
:1009F000091A00DD091900C4091900AB0919009290
:100A00000917007B091800630917004C0916003606
:100A1000091600200916000A091500F5081500E05E
:100A2000081400CC081400B8081400A4081400909E
:100A30000813007D0812006B0813005808120046C6
:100A400008120034081100230811001208110001D7
:100A5000081100F0071000E0071000D0071000C0D8
:100A6000071000B0070F00A107100091070E0083C8
:100A7000070F0074070F0065070E0057070E0049A7
:100A8000070E003B070D002E070E0020070D001378
:100A9000070D0006070D00F9060C00ED060D00E03D
:100AA000060C00D4060C00C8060C00BC060C00B0F6
:100AB000060C00A4060B0099060C008D060B0082A4
:100AC000060B0077060B006C060B0061060A005748
:100AD000060B004C060A0042060A0038060A002EE1
:100AE000060A0024060A001A060A00100609000772
:100AF000060A00FD050900F4050900EB050900E2FE
:100B0000050900D9050900D0050900C7050900BE7F
:100B1000050900B5050800AD050800A50509009CFC
:100B2000050800940508008C050800840508007C71
:100B3000050800740508006C050700650508005DE0
:100B4000050700560508004E050700470507004049
:100B500005080038050700310507002A05070023AE
:100B60000507001C050600160507000F050700080D
:100B700005060002050700FB040600F5040700EE69
:100B8000040600E8040600E2040700DB040600D5C2
:100B9000040600CF040600C9040600C3040600BD15
:100BA000040600B7040600B1040500AC040600A664
:100BB000040600A00405009B0406009504050090AF
:100BC0000406008A04050085040500800406007AF6
:100BD00004050075040500700405006B040500663B
:100BE000040500610405005C04050057040500527B
:100BF0000405004D04050048040500430405003EBB
:100C00000404003A04050035040500300404002CF7
:100C100004050027040400230405001E0404001A30
:100C200004040016040500110404000D0404000966
:100C30000405000404040000040400FC030400F89C
:100C4000030400F4030400F0030400EC030400E8D0
:100C5000030400E4030400E0030400DC030400D800
:100C6000030400D4030400D0030400CC030400C830
:100C7000030300C503030024F404D9201BC40C5C47
:100C80000E9804C4095F0265077101F405F900FBC1
:100C900004B30048048700C10369005803550003EA
:100CA000034500BE023A008402310053022A0029A3
:100CB00002250004022000E4011C00C8011900AF55
:100CC00001170098011400840113007101100061E4
:100CD00001100051010E0043010D0036010B002BE5
:100CE000010B0020010B00150109000C0109000394
:100CF000010800FB000800F3000800EB000700E417
:100D0000000600DE000600D8000600D2000600CC77
:100D1000000500C7000500C2000500BD000400B9C1
:100D2000000400B5000400B1000400AD000400A9F7
:100D3000000400A5000300A20003009F0004009B24
:100D40000003009800030095000200930003009048
:100D50000003008D0002008B000300880002008663
:100D600000020084000300810002007F0002007D79
:100D70000002007B0002007900020077000100768B
:100D80000002007400020072000100710002006F96
:100D90000002006D0001006C0002006A00010069A1
:100DA00000020067000100660001006500010064A8
:100DB0000002006200010061000100600001005FAC
:100DC0000002005D0001005C0001005B0001005AB0
:100DD00000010059000100580001005700010056B1
:100DE00000010055000100540001005300000053B1
:100DF0000001005200010051000100500001004FAD
:100E00000001004E0000004E0001004D0001004CAA
:100E10000001004B0000004B0001004A00010049A6
:100E200000010048000000480001004700010046A2
:100E3000000000460001004500000045000100449C
:100E40000001004300000043000100420000004296
:100E50000001004100000041000100400001003F8E
:100E60000000003F0001003E0000003E0001003D88
:100E70000000003D0001003C0000003C0000003C80
:100E80000001003B0000003B0001003A0000003A76
:100E9000000100390000003900010038000000386E
:100EA0000000003800010037000000370001003664
:100EB000000000360000003600010035000000355B
:100EC0000000003500010034000000340000003450
:100ED0000001003300000033000000330001003245
:100EE000000000320000003200010031000000313B
:100EF0000000003100010030000000300000003030
:100F00000001002F0000002F0000002F0000002F24
:100F10000001002E0000002E0000002E0001002D18
:100F20000000002D0000002D0000002D0001002C0D
:100F30000000002C0000002C0000002C0001002B01
:100F40000000002B0000002B0000002B0001002AF5
:100F50000000002A0000002A0000002A00010029E9
:100F600000000029000000290000002900000029DD
:100F700000010028000000280000002800000028D0
:100F800000000028000100270000002700000027C3
:100F900000000027000000270001002600000026B6
:100FA00000000026000000260000002600010025A9
:100FB000000000250000002500000025000000259D
:100FC000000000250001002400000024000000248F
:100FD0000000002400000024000100230000002382
:100FE0000000002300000023000000230000002375
:100FF0000000002300010022000000220000002267
:101000000000002200000022000000220001002158
:10101000000000210000002100000021000000214C
:10102000000000210000002100010020000000203D
:101030000000002000000020000000200000002030
:1010400000000020000000200001001F0000001F21
:101050000000001F0000001F0000001F0000001F14
:101060000000001F0001001E0000001E0000001E06
:101070000000001E0000004B6420002364656669C8
:101080006E65202044454641554C545F004B692015
:101090000023646566696E65202044454641554CD1
:1010A000545F004B70200023646566696E652020E4
:1010B00044454641554C545F0050494420417574A5
:1010C0006F74756E652066696E697368656421204A
:1010D00050757420746865206C617374204B702C9B
:1010E000204B6920616E64204B6420636F6E7374C3
:1010F000616E74732066726F6D2062656C6F77200D
:10110000696E746F20436F6E66696775726174698A
:101110006F6E2E6800504944204175746F74756E6F
:1011200065206661696C6564212074696D656F7501
:10113000740020403A00543A0050494420417574EC
:101140006F74756E65206661696C656421205465F5
:101150006D706572617475726520746F6F20686957
:10116000676800204B643A2000204B693A20002039
:101170004B703A200020436C6173736963205049BF
:101180004420002054753A2000204B753A2000205E
:101190006D61783A2000206D696E3A200020643A33
:1011A000200020626961733A20002C2073797374E7
:1011B000656D2073746F707065642120486561747B
:1011C00065725F49443A20004572723A204D415899
:1011D00054454D50004D415854454D50207472694E
:1011E000676765726564004572723A204D494E54D6
:1011F000454D50004D494E54454D5020747269671D
:1012000067657265640000002100240027002A0041
:1012100000002200250028002B00000020002300F1
:10122000260029000202020202020202040404044F
:101230000404040403030303030303030101010182
:10124000010101010102040810204080010204088C
:1012500010204080010204081020408080402010AF
:10126000080402010000000102000000000000006C
:10127000040307060000000000000000000000005A
:10128000000000002020506C616E6E657242756631
:1012900066657242797465733A200020467265650E
:1012A000204D656D6F72793A2000417072203137A0
:1012B000203230323000436F6D70696C65643A20C3
:1012C00000286E6F6E652C2064656661756C7420F5
:1012D000636F6E6669672900207C20417574686FB2
:1012E000723A2000323032302D30322D3131002030
:1012F0004C61737420557064617465643A200020F9
:10130000312E312E30004D61726C696E0020536FAA
:101310006674776172652052657365740020576149
:10132000746368646F67205265736574002042724D
:101330006F776E206F757420526573657400204559
:10134000787465726E616C20526573657400506FBD
:101350007765725570005374617274006572726FB4
:10136000722077726974696E6720746F2066696C89
:101370006500205A3A0020593A0020583A00656E1C
:101380006473746F7073206869743A20006F6B0027
:10139000446F6E6520736176696E672066696C655F
:1013A0002E004D3239004D3234004D32332025733A
:1013B000006175746F25692E670057726974696ED4
:1013C0006720746F2066696C653A20002E0A006FF2
:1013D00070656E206661696C65642C2046696C6579
:1013E0003A20002E0A006F70656E206661696C6598
:1013F000642C2046696C653A200046696C65207350
:10140000656C6563746564002053697A653A2000F1
:1014100046696C65206F70656E65643A20006F7078
:10142000656E206661696C65642C2046696C653A5E
:1014300020004E6F772066726573682066696C6560
:101440003A20004E6F7720646F696E672066696C82
:10145000653A20002220706F73002220706172654F
:101460006E743A2200535542524F5554494E45200E
:1014700043414C4C207461726765743A2200747267
:1014800079696E6720746F2063616C6C207375627C
:101490002D67636F64652066696C65732077697476
:1014A0006820746F6F206D616E79206C6576656C55
:1014B000732E204D4158206C6576656C2069733A17
:1014C000005072696E7465722068616C7465642E78
:1014D000206B696C6C28292063616C6C6564210049
:1014E00053442063617264206F6B006F70656E52AD
:1014F0006F6F74206661696C656400766F6C756DE2
:10150000652E696E6974206661696C656400457258
:10151000726F723A00534420696E69742066616983
:101520006C006563686F3A00596E757311241FBEB5
:10153000CFEFD0E4DEBFCDBF12E0A0E0B1E0EAE73C
:10154000FEEF00E00BBF02C007900D92A83DB1076F
:10155000D9F721E1A8EDB2E001C01D92AB38B20786
:10156000E1F71AE0C5E9DAE004C02197FE010E9424
:10157000977EC439D107C9F70E94D16E0C94307F91
:101580000C940000AF92BF92CF92DF92EF92FF9245
:101590000F931F93CF93DF936C017B018B01040F9B
:1015A000151FEB015E01AE18BF08C017D10759F037
:1015B0006991D601ED91FC910190F081E02DC60179
:1015C0000995892B79F7C501DF91CF911F910F9173
:1015D000FF90EF90DF90CF90BF90AF900895815033
:1015E000893078F5E82FF0E0E850F54F0C94977EBD
:1015F0000B0B0F0B010B070B210B120B180B1C0B0A
:10160000220B809180008F778093800008958091D5
:1016100080008F7DF9CF84B58F7784BD089584B520
:101620008F7DFBCF8091B0008F778093B0000895BD
:101630008091B0008F7DF9CF809190008F7780935B
:1016400090000895809190008F7DF9CFCF93DF9324
:10165000282F30E0F901EC59FD4E8491F901EC5B43
:10166000FD4ED491F901EC5DFD4EC491CC23A1F067
:1016700081110E94EF0AEC2FF0E0EE0FFF1FE65EF3
:10168000FD4EA591B491EC91ED2381E090E009F439
:1016900080E0DF91CF91089580E090E0FACF1F9332
:1016A000CF93DF93282F30E0F901EC59FD4E849160
:1016B000F901EC5BFD4ED491F901EC5DFD4EC49156
:1016C000CC23A9F0162F81110E94EF0AEC2FF0E035
:1016D000EE0FFF1FE05FFD4EA591B4918FB7F89418
:1016E000EC91111108C0D095DE23DC938FBFDF9100
:1016F000CF911F910895DE2BF8CFCF93DF9390E029
:10170000FC01EC5BFD4E24918C5D9D4EFC018491AF
:101710008823C9F090E0880F991FFC01EA5FFD4E15
:10172000A591B491FC01E05FFD4EC591D49161118A
:101730000DC09FB7F8948C91209582238C9388815B
:10174000282328839FBFDF91CF910895623051F401
:101750009FB7F8943C91822F809583238C93E881E6
:101760002E2BEFCF8FB7F894EC912E2B2C938FBFAD
:10177000EACF1F93CF93DF93182FEB0161E00E9414
:101780007D0B209739F460E0812FDF91CF911F917D
:101790000C944F0BCF3FD10511F461E0F5CFE12F51
:1017A000F0E0EC59FD4EE491E150E93008F053C00F
:1017B000F0E0E352F44F0C94977EE60BEE0BF30B44
:1017C000FD0B2B0C070C0F0C170C210C84B580683B
:1017D00084BDC7BDDF91CF911F91089584B580620C
:1017E00084BDC8BDF7CF8091800080688093800061
:1017F000D0938900C0938800EDCF809180008062F3
:1018000080938000D0938B00C0938A00E3CF8091B7
:10181000B00080688093B000C093B300DBCF8091AC
:10182000B00080628093B000C093B400D3CF8091A9
:101830009000806880939000D0939900C0939800A6
:10184000C9CF80919000806280939000D0939B00DC
:10185000C0939A00BFCFC038D1050CF09ECF93CF74
:101860003FB7F8948091020B9091030BA091040B69
:10187000B091050B26B5A89B05C02F3F19F0019626
:10188000A11DB11D3FBFBA2FA92F982F8827BC01DA
:10189000CD01620F711D811D911D42E0660F771F02
:1018A000881F991F4A95D1F708958F929F92AF9202
:1018B000BF92CF92DF92EF92FF924B015C010E94A8
:1018C000300C6B017C010E94300C6C197D098E0973
:1018D0009F09683E734081059105A8F321E0821AB3
:1018E0009108A108B10888EEC80E83E0D81EE11C5B
:1018F000F11C81149104A104B10429F7FF90EF9029
:10190000DF90CF90BF90AF909F908F9008952FB7AA
:10191000F8946091FE0A7091FF0A8091000B9091FB
:10192000010B2FBF089585ED8093BC008091BC0012
:1019300084FDFCCF1092D70A08952091B30A260F98
:101940003327331F21323105ECF42091D70AFC01F3
:1019500090E080E0243069F082E00895A091B30A1D
:101960002191AC014D56554FA40FB52FB11D2C93AD
:101970000196861798F38091B30A680F6093B30AB3
:1019800080E0089581E0089508958FEF9FEF089516
:101990008FEF9FEF08958091920A90E09195819545
:1019A00091090895CF93DF93CB01EA01642F0E9440
:1019B0009D0CCE01DF91CF910895CF93DF931F92BD
:1019C000CDB7DEB7698361E0CE0101960E949D0C20
:1019D00081E090E00F90DF91CF9108954F925F9258
:1019E0006F927F92AF92BF92CF92DF92EF92FF926F
:1019F0000F931F93CF93DF9324E030E041E050E05A
:101A0000D901AD5EBE4FFD016591749186179707B0
:101A10000CF066C041505109440F551F440F551F2B
:101A2000EA01CB5EDE4FFE01059114914D5E5E4FE3
:101A3000FA0165917491F901EB5EFE4FE590F49027
:101A4000FE01C590D490FD01C591D491FA01A590F5
:101A5000B490861B970BBC01990F880B990B0E94C1
:101A60005E772B013C01B7016C197D09072E000C34
:101A7000880B990B0E945E779B01AC01C301B201F8
:101A80000E9493736B017C01BE016A197B09072ECA
:101A9000000C880B990B0E945E779B01AC01C7017B
:101AA000B6010E94AE7B6B017C01B801110F880B5F
:101AB000990B0E945E779B01AC01C701B6010E94A1
:101AC000B47ADF91CF911F910F91FF90EF90DF904B
:101AD000CF90BF90AF907F906F905F904F900895A0
:101AE0004F5F5F4F2C5F3F4F243F310509F088CF98
:101AF000E5E0F2E065917491072E000C880B990BDC
:101B00000E945E77DECF10926A0A1092690A1092E4
:101B1000910A5D98089520914801309149014091C2
:101B20004A0150914B0160E070E08FE793E40E941E
:101B3000AE7B60930E0B70930F0B8093100B909302
:101B4000110B10920A0B10920B0B10920C0B1092AF
:101B50000D0B089588EC90E09093570A8093560AF5
:101B600080916F008D7F80936F0090913A0B8091F0
:101B70003B0B981799F06AE070E080E090E00E94DB
:101B8000550C90913A0B80913B0B981771F3809113
:101B90003B0B8F5F8F7080933B0BE7CF1092550A02
:101BA0001092540A80916F00826080936F000895B4
:101BB000CF93DF932FB7F894EC01CC0FDD1FCC0F40
:101BC000DD1FFE01EC5BF54F6081718182819381A5
:101BD0002FBF0E945E77CB5BD44F288139814A8129
:101BE0005B810E94AE7BDF91CF91089580916C055F
:101BF00080FF1DC0459A8FEF80933E0180916C0558
:101C000081FF18C0479A8FEF80933F0180916C0548
:101C100082FF13C02A988FEF8093400180916C055A
:101C200083FF0EC0289A8FEF809341010895459855
:101C300081E0E2CF479881E0E7CF2A9A81E0ECCFBC
:101C4000289881E0F1CF8F929F92AF92BF92EF924E
:101C5000FF920F931F93CF93DF93CAEAD4E085E4FA
:101C6000E82E8BE0F82E0AE914E0699179918991C8
:101C70009991F70181909190A190B1907F010E947C
:101C80005C77A50194010E9493730E94277CF80160
:101C900061937193819391938F01F4E0CA3BDF07C5
:101CA00021F7DF91CF911F910F91FF90EF90BF909F
:101CB000AF909F908F900895FC0120E03EE2DB0101
:101CC0004D91BD01403249F0283011F430833196F6
:101CD000DB0111974C91408331962F5F2B3079F7C0
:101CE0001082089561E0FC0180810C944F0B8EBD41
:101CF0000DB407FEFDCF08958FEF8EBD0DB407FE26
:101D0000FDCF8EB508950F931F93CF93DF93EC0112
:101D10000E94870C8B010E947C0E8F3F69F00E940D
:101D2000870C601B710B6C177D07A8F380E0DF91B7
:101D3000CF911F910F91089581E0F9CF8F929F92DB
:101D4000AF92BF92EF92FF920F931F93CF937C01BC
:101D5000C62F49015A01FC019281892F806A86951C
:101D60008CBD90FD03C081E0963009F480E08DBD0C
:101D700060E0F70180810E944F0B8CE291E00E94AD
:101D8000830E8C2F80640E94770E08E110E0D5014D
:101D9000C401002E04C0B695A795979587950A941F
:101DA000D2F70E94770E08501109083FFFEF1F0776
:101DB00071F785E9CC2321F087E8C83009F08FEF6F
:101DC0000E94770ECC3011F40E947C0EC0E00E947D
:101DD0007C0EF701838387FF04C0CF3F11F0CF5FF4
:101DE000F6CFCF911F910F91FF90EF90BF90AF90E2
:101DF0009F908F9008950F931F93CF93DF93EC01E3
:101E000089018C81833039F089E0440F551F661FAA
:101E1000771F8A95D1F79A01AB0168E1CE010E9444
:101E20009E0E882319F086E089833AC08EEF8EBD1E
:101E3000F801C8019E5F0DB407FEFDCF20812EBDC5
:101E40000DB407FEFDCF21812EBD3296E817F907AC
:101E500091F70DB407FEFDCF8FEF0E94770E8FEF45
:101E60000E94770E0E947C0E8B838F71853099F4CF
:101E700088E592E00E94830E182F87E11123A1F2DA
:101E800020E030E0A9016DE0CE010E949E0E882383
:101E900061F086E1C9CF83E18983CE010E94720E91
:101EA000CE010E94720E10E007C00E947C0E8111CC
:101EB000F0CFCE010E94720E812FDF91CF911F9142
:101EC0000F9108950F931F93CF938091F40EC1E06B
:101ED0008823A9F00091F50E1091F60E4091EC0EBA
:101EE0005091ED0E6091EE0E7091EF0E2CEE3CE0F5
:101EF000C8010E94FB0EC82F811106C0C0E08C2FC4
:101F0000CF911F910F9108954091F00E5091F10ED5
:101F10006091F20E7091F30E411551056105710546
:101F200079F02CEE3CE0C8010E94FB0E882331F3CF
:101F30001092F00E1092F10E1092F20E1092F30E1B
:101F40001092F40EDCCFEF92FF920F931F93CF937A
:101F5000DF93EC0179018C81833039F089E0440F03
:101F6000551F661F771F8A95D1F79A01AB0161E172
:101F7000CE010E949E0E882369F084E08983CE0101
:101F80000E94720E80E0DF91CF911F910F91FF9020
:101F9000EF9008950E94870C8B010E947C0E8B832A
:101FA0008F3F49F40E94870C601B710B6D327140AA
:101FB000A0F381E1E3CF8E3F11F08FE0DFCF8FEF11
:101FC0008EBDF701D701A150BE4F0DB407FEFDCF66
:101FD0009EB591938EBDAE17BF07B9F70DB407FE3E
:101FE000FDCF8EB58C930E947C0E0E947C0ECE019C
:101FF0000E94720E81E0C7CFCF92DF92EF92FF92E4
:10200000CF936B017C01C42F8091EC0E9091ED0E6B
:10201000A091EE0EB091EF0E8C159D05AE05BF059B
:1020200001F10E94620F811108C0C0E08C2FCF9196
:10203000FF90EF90DF90CF9008952CEE3CE0B70139
:10204000A6018091F50E9091F60E0E94A30F8823B1
:1020500061F3C092EC0ED092ED0EE092EE0EF09293
:10206000EF0ECC2321F081E08093F40EDFCFC1E0AE
:10207000DDCF8F929F92AF92BF92CF92DF92EF927D
:10208000FF92CF93DF932EE930E13093F60E209349
:10209000F50E1092BA1042E050E060E070E040931C
:1020A000A3105093A4106093A5107093A6101092E3
:1020B000F40E1092F00E1092F10E1092F20E109299
:1020C000F30E4FEF5FEFBA014093EC0E5093ED0E1D
:1020D0006093EE0E7093EF0E882309F470C040E019
:1020E00060E070E0CB010E94FC0F81110DC0C0E0E8
:1020F0008C2FDF91CF91FF90EF90DF90CF90BF902A
:10210000AF909F908F9008958091AA0E8F7779F766
:102110008091B60E9091B70EA091B80EB091B90E05
:1021200084369105A105B10510F3C090B20ED09090
:10213000B30EE090B40EF090B50EC114D104E104DA
:10214000F104A9F240E0C701B6010E94FC0FC82FBC
:10215000882369F28091F70C9091F80C81159240D8
:1021600031F6A091FC0CAA2311F26091FA0C709147
:10217000FB0C6115710509F4BACF2091F90C2223EB
:1021800009F4B5CFA093B5102093A71090E080E09C
:1021900030E0E1E0F0E0D82FAF01082E02C0440F9C
:1021A000551F0A94E2F72417350769F041E0480FFC
:1021B00001968930910579F74093B01098CFC12CE2
:1021C000D12C7601BFCF8093B0102091020D3091B9
:1021D000030D50E040E02115310541F42091100D30
:1021E0003091110D4091120D5091130D2093A810B4
:1021F0003093A9104093AA105093AB104601570199
:10220000860E971EA11CB11C8092B6109092B7103A
:10221000A092B810B092B910E091FD0CF091FE0CB4
:10222000F093BC10E093BB10B0E00E94997ADC01FF
:10223000CB01880D991DAA1DBB1D8093BD109093E5
:10224000BE10A093BF10B093C01025E0EE0FFF1F8B
:102250002A95E1F7E150FE4FEF2FFF27E6958E0F0D
:102260009F1FA11DB11D8093B1109093B210A09338
:10227000B310B093B4108090FF0C9090000DB12C6F
:10228000A12C8114910441F480900C0D90900D0DBF
:10229000A0900E0DB0900F0DC81AD90AEA0AFB0AD9
:1022A000C80CD91CEA1CFB1C04C0F694E794D79414
:1022B000C794DA95D2F7C092AC10D092AD10E092EC
:1022C000AE10F092AF1085EFC8168FE0D806E1048B
:1022D000F10420F48CE08093BA1009CF80E125EF5F
:1022E000C2162FEFD206E104F10488F08091180D98
:1022F0009091190DA0911A0DB0911B0D8093BD10F6
:102300009093BE10A093BF10B093C01080E2809352
:10231000BA10EECE4F925F926F927F928F929F9201
:10232000AF92BF92CF92DF92EF92FF920F931F93E3
:10233000CF93DF93EC01423051056105710590F4B4
:1023400080E0DF91CF911F910F91FF90EF90DF9090
:10235000CF90BF90AF909F908F907F906F905F9045
:102360004F90089589859A85AB85BC850196A11DFE
:10237000B11D84179507A607B70710F38F89803121
:10238000C9F5852E962EA72EBB248B899C89AD89F5
:10239000BE89880E991EAA1EBB1E280139016A013A
:1023A0007B0141E0C501B4010E94FC0F882341F28A
:1023B0009F89903181F5DD24EE24FF24F601EE0F94
:1023C000FF1FE451F34F118300839A89923008F480
:1023D000B8CF4D815E816F817885840E951EA61ED3
:1023E000B71E8092F00E9092F10EA092F20EB09273
:1023F000F30EA7CF803209F0A3CF8B899C89AD89DA
:10240000BE894A015B01E7E0B694A794979487944C
:10241000EA95D1F7BECFE894C7F8DD24EE24FF2477
:10242000F601EE0FFF1FEE0FFF1FE451F34F408246
:10243000518262827382C9CFCF92DF92EF92FF9274
:102440000F931F93CF93DF93FC0181859285A38522
:10245000B4850196A11DB11D84179507A607B7077E
:1024600050F480E0DF91CF911F910F91FF90EF909A
:10247000DF90CF90089587898031A9F5BB27A72FDA
:10248000962F852FC388D488E588F6888C0D9D1DEE
:10249000AE1DBF1DE9016A017B018F014091EC0E69
:1024A0005091ED0E6091EE0E7091EF0E841795072E
:1024B000A607B70749F5F8018789803169F5B701A3
:1024C000A601552766277727440F551F4451534FC0
:1024D000FA0180819181B0E0A0E088839983AA838A
:1024E000BB8381E0BFCF803209F0BBCFC388D488E3
:1024F000E588F688DB01CA01C7E0B695A7959795F0
:102500008795CA95D1F7C2CF40E0BC01CD010E94AA
:10251000FC0F8111D0CFA5CFB701A6014F7755276A
:1025200066277727440F551F440F551F4451534FBB
:10253000FA0180819181A281B381BF70CECF4F9289
:102540005F926F927F92AF92BF92CF92DF92EF92A3
:10255000FF920F931F93CF93DF9300D000D0CDB79E
:10256000DEB78C0149835A836B837C835901C12C6C
:10257000D12C7601412C82E0582E612C712C49819E
:102580005A816B817C819E012F5F3F4FC8010E9461
:102590001C12882319F1F8018585A301920104C05A
:1025A000220F331F441F551F8A95D2F7DA01C90144
:1025B000C80ED91EEA1EFB1E49815A816B817C819F
:1025C00087898031F1F481E0483F5F4F61057105F3
:1025D000B0F2F501C082D182E282F3820F900F90B7
:1025E0000F900F90DF91CF911F910F91FF90EF907F
:1025F000DF90CF90BF90AF907F906F905F904F90A3
:10260000089581E0483F5F4F6F4F7F4008F4B7CF98
:10261000E0CF0F931F93CF93DF93FC0123812223FD
:1026200031F080E0DF91CF911F910F9108958B01E0
:10263000EC01FB018789803139F582E08B831D8AAB
:102640001E8A1F8A188E808D918DB0E0A0E025E053
:10265000880F991FAA1FBB1F2A95D1F7898B9A8BC8
:10266000AB8BBC8B1A8F098F81E089831C821D8202
:102670001E821F82188619861A861B861C861D8656
:102680001E861F86188ACECF803259F683E08B8350
:10269000428D538D648D758D4D8B5E8B6F8B788FD6
:1026A0009E012F5E3F4FC8010E949F128111DACF19
:1026B000B8CF8F929F92AF92BF92CF92DF92EF925C
:1026C000FF920F931F93CF93DF93EC018B818111C6
:1026D0000EC080E0DF91CF911F910F91FF90EF909E
:1026E000DF90CF90BF90AF909F908F900895098911
:1026F0001A892B893C89041715072607370748F3E1
:102700004A015B01823031F488869986AA86BB86AD
:1027100081E0E0CF81149104A104B10449F41C824A
:102720001D821E821F82188619861A861B86F0CF8C
:10273000088519852A853B85E98DFA8D858590E088
:102740000996B901A8014150510961097109082E82
:1027500004C076956795579547950A94D2F7750109
:102760006401E1E0CE1AD108E108F10804C0F69452
:10277000E794D794C7948A95D2F7C416D506E6068F
:10278000F70620F0012B022B032B11F58D899E8972
:10279000AF89B88D8C839D83AE83BF838E010C5F20
:1027A0001F4FC114D104E104F10409F4ADCF4C81F1
:1027B0005D816E817F819801898D9A8D0E941C12A6
:1027C00091E0C91AD108E108F1088111EACF81CF5F
:1027D000C41AD50AE60AF70AE1CF40E050E0BA0190
:1027E0000C9459133F924F925F926F927F928F9207
:1027F0009F92AF92BF92CF92DF92EF92FF920F9390
:102800001F93CF93DF93CDB7DEB72C970FB6F89415
:10281000DEBF0FBECDBF5C01DC0159968D909C9050
:10282000F40181859285A385B4859C01AD012F5F5C
:102830003F4F4F4F5F4F29873A874B875C87D501C2
:1028400014964D905D906D907C90179741145104B3
:102850006104710409F459C0BFEF4B1A5B0A6B0A9B
:102860007B0A312C730162011D821E821F82188631
:10287000F40181859285A385B4852D813E814F81A8
:102880005885281739074A075B0708F056C089851D
:102890009A85AB85BC858C159D05AE05BF0550F4AA
:1028A00082E0C82ED12CE12CF12C92E0492E512C43
:1028B000612C712C9E012F5F3F4FB701A601C4010F
:1028C0000E941C128823C9F189819A81AB81BC8145
:1028D000892B8A2B8B2B01F1260137019FEF491A97
:1028E000590A690A790A2D813E814F8158852F5FE7
:1028F0003F4F4F4F5F4F2D833E834F8358873FEFAE
:10290000C31AD30AE30AF30AB3CF4080518062802E
:10291000738033243394A6CFC414D504E604F7049B
:1029200011F70FEF1FEF2FEF3FE0B701A601C40132
:102930000E948A11782E81111AC0712C872D2C9635
:102940000FB6F894DEBF0FBECDBFDF91CF911F91C0
:102950000F91FF90EF90DF90CF90BF90AF909F903E
:102960008F907F906F905F904F903F900895F5010A
:102970004481558166817781411551056105710555
:1029800039F097018601C4010E948A118823A9F2B7
:10299000D5011496CD92DD92ED92FC9217973320DB
:1029A00051F0D701C6010196A11DB11DF40180832C
:1029B0009183A283B383F50185899689A789B08D18
:1029C000892B8A2B8B2B09F0B9CFC58AD68AE78A47
:1029D000F08E818180688183B1CFCF93DF93EC014A
:1029E000462F41706C857D858E859F850E94FC0FEA
:1029F000882351F0888920E2829FC00111248451EC
:102A0000934FDF91CF91089590E080E0FACFCF937C
:102A1000DF93EC018B81882349F1898187FF22C0F4
:102A200061E0CE010E94ED14FC01892BF9F0808158
:102A3000853EE1F08B81823040F489899A89AB89A7
:102A4000BC89848F958FA68FB78F8D899E89938F30
:102A5000828F8D899E89AF89B88DB58BA48B898132
:102A60008F778983DF91CF910C94620F81E0888307
:102A700080E0DF91CF910895CF93DF93EC010E9426
:102A800007151B82DF91CF910895CF92DF92EF92CD
:102A9000FF921F93CF93DF931092FA0E80912D0F28
:102AA000882321F08AE29FE00E943C151092A21038
:102AB00010929F108FE180939E100E94870CEB0173
:102AC00061E080919E100E947D0B8EE990E10E9452
:102AD000720E60E086E00E947D0B61E085E00E945E
:102AE0007D0B61E087E00E947D0B61E084E00E9445
:102AF0007D0B61E084E00E944F0B85E08093A01085
:102B000082E58CBD1DBC1AE08FEF0E94770E11503C
:102B1000D9F720E030E0A90160E08EE990E10E9461
:102B20009E0E182F8093A1108130E1F00E94870C37
:102B30006C1B7D0B613D774060F381E080939F10BB
:102B40008EE990E10E94720EE2E2F5E18491882321
:102B500009F487C09091C00095FFFCCF8093C60018
:102B60003196F4CF2AEA31E040E050E068E08EE9A7
:102B700090E10E949E0E82FF2AC01093A2108091C5
:102B8000A210C12CD12C7601823029F4C12CD12C79
:102B9000E12C80E4F82E20E030E0A90167E38EE923
:102BA00090E10E949E0EA701960169E28EE990E1F4
:102BB0000E949E0E8093A1108823C1F00E94870C72
:102BC0006C1B7D0B613D774030F38AE0B7CF14E09A
:102BD0000E947C0E8093A1101150D1F78A3A11F017
:102BE00082E0ACCF82E08093A210C9CF8091A21086
:102BF0008230D1F420E030E0A9016AE38EE990E16F
:102C00000E949E0E882311F088E098CF0E947C0ECF
:102C1000807C803C19F483E08093A2100E947C0E9B
:102C20000E947C0E0E947C0E8EE990E10E94720E42
:102C30001092A01081E00E943910811157C080E0ED
:102C40000E943910811152C0EEE0F5E18491882391
:102C5000D9F19091C00095FFFCCF8093C6003196CA
:102C6000F5CFE5E1F5E18491882341F09091C00032
:102C700095FFFCCF8093C6003196F5CF8091C000C0
:102C800085FFFCCF8AE08093C6008BE1EAE2FFE09B
:102C9000ABE4BFE001900D928A95E1F78091280F97
:102CA0009091290F90934A0F8093490F86E29FE0FD
:102CB0009093460F8093450FDF91CF911F91FF9026
:102CC000EF90DF90CF900895EBEFF4E184918823AB
:102CD00041F09091C00095FFFCCF8093C6003196E3
:102CE000F5CF8091C00085FFFCCFCCCF63EA70E1C7
:102CF0008AE29FE00E94091381111FC0EEE0F5E116
:102D00008491882341F09091C00095FFFCCF80937F
:102D1000C6003196F5CFEBEEF4E18491882341F0C3
:102D20009091C00095FFFCCF8093C6003196F5CFFF
:102D30008091C00085FFFCCFA5CF81E08093FA0E83
:102D4000E2E2F5E18491882341F09091C00095FF83
:102D5000FCCF8093C6003196F5CFE0EEF4E184918C
:102D6000882341F09091C00095FFFCCF8093C6006E
:102D70003196F5CF8091C00085FFFCCF83CFCF93F4
:102D8000DF93EB01FC012381211104C080E0DF917E
:102D9000CF9108952250223028F48FE2888319823F
:102DA00081E0F5CF60E00E94ED14009779F3DC013B
:102DB00060E080E09EE22D91203299F0883031F47D
:102DC0009E01260F311DF90190836F5F9E01260F32
:102DD000311DAD0141505109FA014081F901408393
:102DE0006F5F8F5F8B3039F7FE01E60FF11D1082A8
:102DF000D7CFCF92DF92EF92FF92C0902301D09075
:102E00002401E0902501F09026018091560488234A
:102E100091F120E030E0A901C701B6010E94577787
:102E2000882349F120E030E040E05FE3C701B601CC
:102E30000E9493736B017C012BED3FE049E450E469
:102E40000E949373A70196010E9493739B01AC01AA
:102E500060E070E080E89FE30E94AE7B6093390100
:102E600070933A0180933B0190933C01FF90EF9067
:102E7000DF90CF90089560E070E080E89FE3EECFB0
:102E8000AF92BF92CF92DF92EF92FF920F931F9378
:102E9000CF93DF93CDB7DEB7E0970FB6F894DEBFE0
:102EA0000FBECDBF80E1EFE4F1E0DE0111960190AD
:102EB0000D928A95E1F780E1EFE5F1E0DE015196B0
:102EC00001900D928A95E1F780E1EFE6F1E0DE01F5
:102ED000919601900D928A95E1F7CE0101965C01E1
:102EE00065E47BE0DE0151964BE754E09E012F5DE7
:102EF0003F4F8AEA94E08D01F501C190D190E190B5
:102F0000F1905F01FB01C192D192E192F192BF0178
:102F1000CD90DD90ED90FD90FA01C192D192E192B9
:102F2000F192AF01F901C190D190E190F1909F0130
:102F3000FC01C192D192E192F192CF01A016B106AB
:102F4000D9F60E94230E80E090E0A6E9B3E48093D6
:102F50006F0490937004A0937104B09372048093F3
:102F6000770490937804A0937904B0937A048093C3
:102F7000730490937404A0937504B0937604109234
:102F8000930410929404109295041092960480E297
:102F90009EE4A0E0B0E080938B0490938C04A09317
:102FA0008D04B0938E0410928F04109290041092AE
:102FB00091041092920480E090E0A0E0B0E480934D
:102FC0006B0490936C04A0936D04B0936E048DEC2D
:102FD0009CECACECBEE38093670490936804A093F0
:102FE0006904B0936A0480E090E0A0E8BFE38093B6
:102FF000630490936404A0936504B09366041092F4
:103000005F041092600410926104109262041092A6
:103010005B0410925C0410925D0410925E041092A6
:103020005704109258041092590410925A048AE9D5
:1030300099E9A1EBB1E48093310190933201A0931F
:103040003301B093340188EC9EE6A9E5BEE380939A
:10305000480190934901A0934A01B0934B0180E647
:1030600095EFA0E1B4E480932D0190932E01A093FD
:103070002F01B093300180E090E0A8ECB2E480939F
:10308000290190932A01A0932B01B0932C0184E194
:1030900090E090932801809327010E948B0D10925D
:1030A000560480E090E0A0E4B0E480932301909384
:1030B0002401A0932501B09326010E94F916E2E2B3
:1030C000F5E18491882341F09091C00095FFFCCFF9
:1030D0008093C6003196F5CFE8E5F6E08491882329
:1030E00041F09091C00095FFFCCF8093C6003196CF
:1030F000F5CF8091C00085FFFCCF8AE08093C600A9
:10310000E0960FB6F894DEBF0FBECDBFDF91CF9132
:103110001F910F91FF90EF90DF90CF90BF90AF90F5
:1031200008955E9AECE3FBE010825E9A1182159A94
:1031300012825E9A0895F8940E94830D0E9491185D
:10314000EEE0F5E18491882341F09091C00095FF75
:10315000FCCF8093C6003196F5CFE1ECF4E1849189
:10316000882341F09091C00095FFFCCF8093C6006A
:103170003196F5CF8091C00085FFFCCF8AE0809327
:10318000C6007894C6E0D0E0219739F068EC70E092
:1031900080E090E00E94550CF7CFF894FFCFCF92DB
:1031A000DF92EF92FF92CF93DF93EC01C090140473
:1031B000D0901504E0901604F0901704A701960132
:1031C000688179818A819B810E94577787FF04C03B
:1031D000C882D982EA82FB82C0901804D090190478
:1031E000E0901A04F0901B04A70196016C817D8188
:1031F0008E819F810E94577787FF04C0CC82DD8239
:10320000EE82FF8220E030E0A90160911C04709101
:103210001D0480911E0490911F040E94B47A6B01DA
:103220007C01AC019B01688579858A859B850E941C
:10323000577787FF04C0C886D986EA86FB86C09088
:103240000F01D0901001E0901101F0901201A70140
:103250009601688179818A819B810E94147D18166C
:1032600024F4C882D982EA82FB82C0901301D090F4
:103270001401E0901501F0901601A70196016C81F0
:103280007D818E819F810E94147D181624F4CC824A
:10329000DD82EE82FF82C0901701D0901801E0908D
:1032A0001901F0901A01A7019601688579858A8530
:1032B0009B850E94147D181624F4C886D986EA8658
:1032C000FB86DF91CF91FF90EF90DF90CF90089534
:1032D00080E1E3E3F4E0A0E2B4E001900D928A958E
:1032E000E1F70895FC01238121110C943C15089508
:1032F00023ED31E0FC013183208304960C94721994
:10330000089590E080E008950E94870C6093D503B3
:103310007093D6038093D7039093D80308950E94A7
:103320008419E091E20CF091E30CE15CF44F8081B0
:10333000811114C0EEE7F4E08491882341F090916C
:10334000C00095FFFCCF8093C6003196F5CF8091E9
:10335000C00085FFFCCF8AE08093C60008952F92BD
:103360003F924F925F926F927F928F929F92AF9215
:10337000BF92CF92DF92EF92FF920F931F93CF9362
:10338000DF93CDB7DEB7A0970FB6F894DEBF0FBEC0
:10339000CDBF611571058105910501F58091C000D2
:1033A00085FFFCCF80E38093C600A0960FB6F8940B
:1033B000DEBF0FBECDBFDF91CF911F910F91FF9068
:1033C000EF90DF90CF90BF90AF909F908F907F90C5
:1033D0006F905F904F903F902F9008958E010F5FF8
:1033E0001F4F812C912C54011801442E512C712C0B
:1033F000612CA30192010E94777A750164018FEF1D
:10340000C81AD80AE80AF80AF80161938F01B901CD
:10341000CA016115710581059105C9F4F101E80D35
:10342000F91D80818A30B0F4805D9091C00095FFD5
:10343000FCCF8093C600F1E08F1A9108A108B10873
:103440008FEF88169806A806B80641F7AECF46015A
:103450005701CFCF895CE9CF97FF0EC02091C00004
:1034600025FFFCCF2DE22093C600909580957095A6
:1034700061957F4F8F4F9F4F4AE00C94AF19BC016D
:1034800090E080E04AE00E94AF198091C00085FF83
:10349000FCCF8DE08093C6008091C00085FFFCCFFB
:1034A0008AE08093C60008958F929F92AF92BF9258
:1034B000CF92DF92EF92FF92CF936B017C01B42EFB
:1034C00020E030E0A9010E94577787FF0BC0809170
:1034D000C00085FFFCCF8DE28093C600F7FAF09420
:1034E000F7F8F094C0E060E070E080E09FE3CB1577
:1034F00041F020E030E040E251E40E94AE7BCF5F3B
:10350000F6CFA70196010E94B47A6B017C010E945C
:10351000277C4B015C014AE00E94AF19CC2381F16A
:103520008091C00085FFFCCFC501B4010E945C778B
:103530009B01AC01C701B6010E94B37A2EE2209331
:10354000C600C150E8F020E030E040E251E40E94C3
:1035500093734B015C010E94207C6B01770FEE0896
:10356000FF08C701B6010E942C1AC701B6010E94CC
:103570005E779B01AC01C501B4010E94B37AE1CF33
:10358000CF91FF90EF90DF90CF90BF90AF909F9042
:103590008F900895FC01CB01BA012491222341F0C0
:1035A0003091C00035FFFCCF2093C6003196F5CF97
:1035B00042E00C94541A8F929F92AF92BF92CF9296
:1035C000DF92EF92FF920F931F93CF93DF9300D080
:1035D00000D0CDB7DEB7FC018381813011F080E0EF
:1035E00060C0818181FFFBCF81899289A389B489E1
:1035F000892B8A2B8B2B09F46EC07F0140E050E0B1
:10360000BA01CF010E945913882349F3F701C18CF5
:10361000D28C85889688A788B08C82E090E0A0E064
:10362000B0E0F60180839183A283B3839E012F5F74
:103630003F4FB501A401C6010E941C12882379F2F4
:1036400000E010E09801B501A401C6010E948A11B2
:10365000882329F289809A80AB80BC80F601878913
:10366000803181F5F8EF8F16FFEF9F06A104B104BA
:10367000E8F2F701158A168A178A108E118A128AC3
:10368000138A148A818180688183C7010E9407158B
:10369000882309F4A4CF40E050E0BA01C7010E949A
:1036A00059130F900F900F900F90DF91CF911F91B2
:1036B0000F91FF90EF90DF90CF90BF90AF909F90D1
:1036C0008F90089588EF88168FEF9806A8068FE0F0
:1036D000B80678F6ABCF81E0E4CF8091710A909183
:1036E000720A0E94EE0C6093590A70935A0A8093F2
:1036F0005B0A90935C0A8FB7F89410927D0A8FBF93
:103700000895209142012223A1F1EEE0F5E12491F8
:10371000222341F03091C00035FFFCCF2093C6003A
:103720003196F5CFFB012491222349F03091C0005E
:1037300035FFFCCF2093C6006F5F7F4FF3CFEAEADF
:10374000F1E12491222341F03091C00035FFFCCFFC
:103750002093C6003196F5CFBC01990F880B990BC9
:103760000E942C1A8091C00085FFFCCF8AE08093D4
:10377000C6008091580A811107C01092420181E071
:103780008093580A0E949B180C94830D2F923F92AD
:103790004F925F926F927F928F929F92AF92BF9261
:1037A000CF92DF92EF92FF920F931F93CF93DF930D
:1037B000CDB7DEB7AE970FB6F894DEBF0FBECDBF64
:1037C0006E8B7F8B888F998F5E874D873DA72CA747
:1037D0000E94870C69877A878B879C872D853E8519
:1037E000EBEDF1E0232B61F1EEEEF1E08191882326
:1037F00039F09091C00095FFFCCF8093C600F6CFC2
:103800008091C00085FFFCCF8AE08093C600AE9611
:103810000FB6F894DEBF0FBECDBFDF91CF911F91E1
:103820000F91FF90EF90DF90CF90BF90AF909F905F
:103830008F907F906F905F904F903F902F90089562
:103840008191882339F09091C00095FFFCCF80933F
:10385000C600F6CF8091C00085FFFCCF8AE0809340
:10386000C6000E94830D8FE78093910A89849A8411
:10387000AB84BC848B8E9C8EAD8EBE8E1A8A30E457
:103880003B8B4CE14C8B56E45D8B10E01F86188A15
:10389000198A1FA218A619A61AA61BA21CA21DA24D
:1038A0001EA2C12CD12C76017FE7472E512C612C12
:1038B000712C8FE790E0A0E0B0E08D839E83AF8312
:1038C000B8871F8E18A219A21AA291E09A8F212CF4
:1038D000312C00E01EA60E94870C69837A838B83BB
:1038E0009C83A0917D0AABA7AA2309F45EC20E9423
:1038F0006D1B2090590A30905A0A00915B0AB091D2
:103900005C0ABEA79101402F5B2F612F7F858889BC
:1039100099890E94147D18162CF0122D3F86088B71
:103920002EA5298B9101402F5EA56A897B898C8900
:103930009D890E94577787FD05C02A8A3B8A0C8B98
:103940003EA53D8B4A8D442309F441C02E893F8911
:10395000488D598DB101802F9EA50E94147D1816A7
:103960000CF023C2D501C40188579C4EAF4FBF4F06
:1039700029813A814B815C8182179307A407B5079F
:1039800008F013C28D819E81AF81B8858419950995
:10399000A609B709B595A795979587958093910A3C
:1039A000281939094A095B092F8F38A349A35AA35B
:1039B0001E893F893F87488D488B598D598B898156
:1039C0009A81AB81BC8189879A87AB87BC872E8916
:1039D0003F89488D598DB101802F9EA50E94577750
:1039E00087FD02C01A8EE1C189859A85AB85BC85A9
:1039F00088579C4EAF4FBF4F29813A814B815C81E4
:103A000082179307A407B50768F74D855E851416DE
:103A100015060CF0A8C189819A81AB81BC812985EA
:103A20003A854B855C85821B930BA40BB50B8F8C61
:103A300098A0A9A0BAA0880E991EAA1EBB1E2F8D01
:103A400038A149A15AA1281B390B4A0B5B0BC301B2
:103A5000B2010E94677AA50194010E94787E4D8090
:103A60005E806F807884420E531E641E751E34E1A2
:103A700043165104610471046CF14CEE4416510478
:103A8000610471040CF550E8451651046104710499
:103A90007CF14D825E826F8278868EEF90E0A0E0AE
:103AA000B0E084199509A609B7092C013D01E2EAA5
:103AB000F1E18491882309F19091C00095FFFCCF3A
:103AC0008093C6003196F5CF5BEE452E512C612CCC
:103AD000712CDFCF24E130E040E050E02D833E83C5
:103AE0004F83588744E1442E512C612C712CDFCF39
:103AF0004D825E826F827886DACF6D817E818F8182
:103B000098850E942C1AEDE9F1E18491882341F017
:103B10009091C00095FFFCCF8093C6003196F5CF01
:103B2000C301B2010E942C1AE6E9F1E184918823D5
:103B300041F09091C00095FFFCCF8093C600319674
:103B4000F5CF42E06A897B898C899D890E94541A4D
:103B5000EFE8F1E18491882341F09091C00095FF56
:103B6000FCCF8093C6003196F5CF42E0612F7F8570
:103B7000888999890E94541A8091C00085FFFCCFE2
:103B80003AE03093C6004D855E85433051050CF414
:103B9000EAC0C301B2010E945E7720E030E040E855
:103BA00050E40E9493736B017C012A893B894C8904
:103BB0005D89612F7F85888999890E94B37A2BED71
:103BC0003FE049E450E40E94937320E030E040E09D
:103BD0005FE30E9493739B01AC01C701B6010E9491
:103BE000AE7B6B017C01C501B4010E945E7720E0D1
:103BF00030E04AE754E40E94AE7B4B015C01E9E807
:103C0000F1E18491882341F09091C00095FFFCCFB1
:103C10008093C6003196F5CF42E0C701B6010E94FD
:103C2000541AE3E8F1E18491882341F09091C000B7
:103C300095FFFCCF8093C6003196F5CF42E0C501D9
:103C4000B4010E94541A8091C00085FFFCCF5AE055
:103C50005093C6002AE939E949E15FE3C701B6019B
:103C60000E9493736B017C01AC019B010E94B47AAA
:103C7000A50194010E94AE7B6BA37CA38DA39EA3A0
:103C8000A7019601C501B4010E94937320E030E0C2
:103C900040E05EE30E9493736FA378A789A79AA779
:103CA000E5E7F1E18491882341F09091C00095FF10
:103CB000FCCF8093C6003196F5CF8091C00085FF80
:103CC000FCCF8AE08093C600EFE6F1E1849188237F
:103CD00041F09091C00095FFFCCF8093C6003196D3
:103CE000F5CF42E0C701B6010E94541A8091C0008E
:103CF00085FFFCCF9AE09093C600E9E6F1E184915C
:103D0000882341F09091C00095FFFCCF8093C600BE
:103D10003196F5CF42E06BA17CA18DA19EA10E94BE
:103D2000541A8091C00085FFFCCFAAE0A093C60082
:103D3000E3E6F1E18491882341F09091C00095FF82
:103D4000FCCF8093C6003196F5CF42E06FA178A5F5
:103D500089A59AA50E94541A8091C00085FFFCCFC6
:103D6000BAE0B093C6008D819E81AF81B885840D85
:103D7000951DA61DB71DB595A79597958795809319
:103D8000910A2D853E852F5F3F4F3E872D873E89C7
:103D90003A8B4F894B8B588D5C8B898D8D8B8980AD
:103DA0009A80AB80BC809BA59A8F20E030E040EAEF
:103DB00051E46E897F89888D998D0E94B47A910132
:103DC000402F5EA50E94577787FF12C0E9E3F1E11B
:103DD0008491882341F09091C00095FFFCCF80939F
:103DE000C6003196F5CF8091C00085FFFCCF0CCD89
:103DF0008B8D9C8DAD8DBE8D8053984FAF4FBF4F37
:103E000029813A814B815C8182179307A407B5070A
:103E100008F039C03091910A3B8FE6E3F1E18491DB
:103E2000882341F09091C00095FFFCCF8093C6009D
:103E30003196F5CF42E0B101802F9EA50E94541A21
:103E4000E2E3F1E18491882341F09091C00095FF75
:103E5000FCCF8093C6003196F5CF4B8D642F70E078
:103E600090E080E00E942C1A8091C00085FFFCCF7A
:103E70005AE05093C60089819A81AB81BC818B8FB7
:103E80009C8FAD8FBE8F89819A81AB81BC81880F59
:103E9000991FAA1FBB1F49855A856B857C85480DD4
:103EA000591D6A1D7B1D841B950BA60BB70B813812
:103EB0009F44A241B10590F0E5E1F1E184918823AE
:103EC00041F09091C00095FFFCCF8093C6003196E1
:103ED000F5CF8091C00085FFFCCF96CC4D855E85E7
:103EE0008CA59DA5841795070CF0F5CCE9EBF0E1C6
:103EF0008491882341F09091C00095FFFCCF80937E
:103F0000C6003196F5CF8091C00085FFFCCF8AE0D6
:103F10008093C600E7EAF0E18491882341F0909114
:103F2000C00095FFFCCF8093C6003196F5CFE3EA41
:103F3000F0E18491882341F09091C00095FFFCCF7F
:103F40008093C6003196F5CF42E0C701B6010E94CA
:103F5000541A8091C00085FFFCCF8AE08093C60090
:103F6000E1E9F0E18491882341F09091C00095FF50
:103F7000FCCF8093C6003196F5CFEDE8F0E1849157
:103F8000882341F09091C00095FFFCCF8093C6003C
:103F90003196F5CF42E06BA17CA18DA19EA10E943C
:103FA000541A8091C00085FFFCCF8AE08093C60040
:103FB000EBE7F0E18491882341F09091C00095FFF8
:103FC000FCCF8093C6003196F5CFE7E7F0E184910E
:103FD000882341F09091C00095FFFCCF8093C600EC
:103FE0003196F5CF42E06FA178A589A59AA50E94E8
:103FF000541A8091C00085FFFCCF06CC80914D05FE
:1040000090914E0590934C0580934B05E5E7F4E0C5
:104010008491882341F09091C00095FFFCCF80935C
:10402000C6003196F5CF60914804709149048091A3
:104030004A0490914B046F5F7F4F8F4F9F4F0E94B8
:104040002C1A8091C00085FFFCCF8AE08093C600C7
:104050000C948F19CF93C62FEEE0F5E12491222323
:1040600041F03091C00035FFFCCF2093C60031965F
:10407000F5CFFC012491222341F03091C00035FF9F
:10408000FCCF2093C6000196F4CF60914804709154
:10409000490480914A0490914B040E942C1A80910B
:1040A000C00085FFFCCF8AE08093C600C1110E944A
:1040B000FE1F1092540410925304CF910895FC01F6
:1040C000CB01BA012491222341F03091C00035FF89
:1040D000FCCF2093C6003196F5CF4AE00C94AF197F
:1040E000CF93C82F81112EC0E2E2F5E1849188239D
:1040F00041F09091C00095FFFCCF8093C6003196AF
:10410000F5CFE7E6F8E08491882341F09091C00074
:1041100095FFFCCF8093C6003196F5CF8091C0000B
:1041200085FFFCCF8AE08093C600E2E2F5E184914E
:10413000882341F09091C00095FFFCCF8093C6008A
:104140003196F5CF4091450B5091460B6091470B4E
:104150007091480B8FE598E00E94CA1A4091490B74
:1041600050914A0B60914B0B70914C0B8CE598E091
:104170000E94CA1A40914D0B50914E0B60914F0B0B
:104180007091500B89E598E00E94CA1A4091510B3A
:104190005091520B6091530B7091540B86E598E04F
:1041A0000E94CA1A8091C00085FFFCCF8AE08093EC
:1041B000C600C1112EC0E2E2F5E18491882341F0EE
:1041C0009091C00095FFFCCF8093C6003196F5CF4B
:1041D000ECE3F8E08491882341F09091C00095FFD2
:1041E000FCCF8093C6003196F5CF8091C00085FF4B
:1041F000FCCF8AE08093C600E2E2F5E18491882357
:1042000041F09091C00095FFFCCF8093C60031969D
:10421000F5CF40917B0450917C0460917D047091B6
:104220007E0483E398E00E94CA1A40917F04509173
:104230008004609181047091820480E398E00E9480
:10424000CA1A40918304509184046091850470914E
:1042500086048DE298E00E94CA1A4091870450912A
:1042600088046091890470918A048AE298E00E942F
:10427000CA1A8091C00085FFFCCF8AE08093C600F7
:10428000C1112EC0E2E2F5E18491882341F09091C2
:10429000C00095FFFCCF8093C6003196F5CFECE0CF
:1042A000F8E08491882341F09091C00095FFFCCF05
:1042B0008093C6003196F5CF8091C00085FFFCCF7A
:1042C0008AE08093C600E2E2F5E18491882341F020
:1042D0009091C00095FFFCCF8093C6003196F5CF3A
:1042E0004091AA045091AB046091AC047091AD046C
:1042F00083E098E00E945F204091AE045091AF04AB
:104300006091B0047091B10480E098E00E945F2059
:104310004091B2045091B3046091B4047091B5041B
:104320008DEF97E00E945F204091B6045091B70452
:104330006091B8047091B9048AEF97E00E945F2001
:104340008091C00085FFFCCF8AE08093C600C11138
:104350002EC0E2E2F5E18491882341F09091C00003
:1043600095FFFCCF8093C6003196F5CFE8ECF7E0DF
:104370008491882341F09091C00095FFFCCF8093F9
:10438000C6003196F5CF8091C00085FFFCCF8AE052
:104390008093C600E2E2F5E18491882341F0909198
:1043A000C00095FFFCCF8093C6003196F5CF4091B9
:1043B0006F045091700460917104709172048FEBDE
:1043C00097E00E94CA1A4091770450917804609156
:1043D000790470917A048CEB97E00E94CA1A40919C
:1043E000730450917404609175047091760489EBA4
:1043F00097E00E94CA1A8091C00085FFFCCF8AE036
:104400008093C600C1112EC0E2E2F5E184918823B9
:1044100041F09091C00095FFFCCF8093C60031968B
:10442000F5CFE6E0F7E08491882341F09091C00059
:1044300095FFFCCF8093C6003196F5CF8091C000E8
:1044400085FFFCCF8AE08093C600E2E2F5E184912B
:10445000882341F09091C00095FFFCCF8093C60067
:104460003196F5CF40919304509194046091950456
:10447000709196048DEF96E00E94CA1A40918F04C5
:104480005091900460919104709192048AEF96E0AB
:104490000E94CA1A40918B0450918C0460918D0443
:1044A00070918E0487EF96E00E945F2040916B042C
:1044B00050916C0460916D0470916E0484EF96E0ED
:1044C0000E94CA1A4091670450916804609169047F
:1044D00070916A0481EF96E00E94CA1A40916304C9
:1044E0005091640460916504709166048EEE96E0CC
:1044F0000E94CA1A8091C00085FFFCCF8AE0809399
:10450000C600C1112EC0E2E2F5E18491882341F09A
:104510009091C00095FFFCCF8093C6003196F5CFF7
:10452000ECEDF6E08491882341F09091C00095FF76
:10453000FCCF8093C6003196F5CF8091C00085FFF7
:10454000FCCF8AE08093C600E2E2F5E18491882303
:1045500041F09091C00095FFFCCF8093C60031964A
:10456000F5CF4091570450915804609159047091CF
:104570005A0483ED96E00E94CA1A40915B04509160
:104580005C0460915D0470915E0480ED96E00E9491
:10459000CA1A40915F045091600460916104709167
:1045A00062048DEC96E00E94CA1A8091C00085FFDB
:1045B000FCCF8AE08093C600C1112EC0E2E2F5E193
:1045C0008491882341F09091C00095FFFCCF8093A7
:1045D000C6003196F5CFEFEBF6E08491882341F0E9
:1045E0009091C00095FFFCCF8093C6003196F5CF27
:1045F0008091C00085FFFCCF8AE08093C600E2E294
:10460000F5E18491882341F09091C00095FFFCCFA3
:104610008093C6003196F5CF40913101509132011F
:10462000609133017091340186EB96E00E94CA1AC2
:104630002CE933E549E45EE360914801709149015A
:1046400080914A0190914B010E94AE7BAB01BC016D
:1046500083EB96E00E94CA1A2CE933E549E45EE355
:1046600060912D0170912E0180912F019091300168
:104670000E949373AB01BC0180EB96E00E94CA1AC2
:104680004091290150912A0160912B0170912C01D8
:104690008DEA96E00E94CA1A609127017091280164
:1046A000EAEAF6E08491882341F09091C00095FFFA
:1046B000FCCF8093C6003196F5CF072E000C880BF7
:1046C000990B0E942C1A8091C00085FFFCCF8AE0D4
:1046D0008093C600C11144C0E2E2F5E184918823D1
:1046E00041F09091C00095FFFCCF8093C6003196B9
:1046F000F5CFE7E9F6E08491882341F09091C0007E
:1047000095FFFCCF8093C6003196F5CF809156047B
:104710008823A1F08091C00085FFFCCF8AE08093C0
:10472000C600E2E2F5E184918823D1F09091C000C7
:1047300095FFFCCF8093C6003196F5CFEDE8F6E00B
:104740008491882341F09091C00095FFFCCF809325
:10475000C6003196F5CF8091C00085FFFCCFDECF3B
:10476000409123015091240160912501709126010F
:1047700084E896E00E94CA1A8091C00085FFFCCFB1
:104780008AE08093C60080915604811123C0CC2317
:1047900069F0EAE7F6E084918823A9F09091C000DF
:1047A00095FFFCCF8093C6003196F5CFE2E2F5E1AC
:1047B0008491882371F39091C00095FFFCCF809382
:1047C000C6003196F5CF8091C00085FFFCCF8AE00E
:1047D0008093C600CF910895CF93DF93FC01208191
:1047E0002B3309F46AC02091E80C3091E90C243095
:1047F00031050CF062C0BC018091500490915104CD
:1048000020E6289FE001299FD00D1124CE59D44FD6
:10481000CE010E940C7FE2E2F5E18491882341F011
:104820009091C00095FFFCCF8093C6003196F5CFE4
:10483000E9E0F2E08491882341F09091C00095FF77
:10484000FCCF8093C6003196F5CF8991882339F04B
:104850009091C00095FFFCCF8093C600F6CFE7E0B3
:10486000F2E08491882341F09091C00095FFFCCF45
:104870008093C6003196F5CF8091C00085FFFCCFB4
:104880008AE08093C6008091500490915104019673
:1048900064E070E00E94647E909351048093500421
:1048A0008091E80C9091E90C01969093E90C80932B
:1048B000E80C81E0DF91CF91089580E0FBCF682F75
:1048C000880F770B8091EE029091EF020E94F87EA4
:1048D0009C019093ED028093EC0281E0232B09F47C
:1048E00080E008954F925F926F927F92AF92BF9255
:1048F000CF92DF92EF92FF920F931F93CF93DF93AC
:104900008C01EB01FC0146A057A060A471A4AEA0ED
:10491000BFA0C8A4D9A49501A601C301B2010E94F9
:10492000577787FF3DC0A3019201C301B2010E94E6
:1049300093732B013C01F80162A973A984A995A97D
:1049400090589B01AC010E94B47AF80126A537A5C6
:1049500040A951A90E9493739B01AC01C301B2010C
:104960000E94B37A0E94097E7B018C019B01AC01FD
:10497000B501C6010E94577787FF02C07501860105
:104980009701A801B501C6010E945777882341F01D
:10499000C701D8018EA39FA3A8A7B9A781E08EABBA
:1049A000DF91CF911F910F91FF90EF90DF90CF900B
:1049B000BF90AF907F906F905F904F9008952F922F
:1049C0003F924F925F926F927F928F929F92AF929F
:1049D000BF92CF92DF92EF92FF920F931F93CF93EC
:1049E000DF9300D000D0CDB7DEB700E214E0A5E43D
:1049F000BBE02D913D914D915C91F80160817181F9
:104A0000828193810E9493730E94C87D6B017C0117
:104A10008AE2282E8BE0382ED101CD92DD92ED92E4
:104A2000FC9213972091490B30914A0B40914B0B0C
:104A300050914C0BF80164817581868197810E94A9
:104A400093730E94C87D4B015C01D10114968D9235
:104A50009D92AD92BC92179720914D0B30914E0BC9
:104A600040914F0B5091500BF80160857185828504
:104A700093850E9493730E94C87D2B013C01D10154
:104A800018964D925D926D927C921B972091510BDE
:104A90003091520B4091530B5091540BF8016485A7
:104AA0007585868597850E9493730E94C87DD10184
:104AB0001C966D937D938D939C931F970E945E77B8
:104AC0000E94207C69837A838B839C83C301B2011B
:104AD0000E945E770E94207C2B013C01C501B4013D
:104AE0000E945E770E94207C4B015C01C701B601E9
:104AF0000E945E770E94207C2FB7F894E4E4FAE0ED
:104B0000608371838283938384829582A682B78235
:104B1000408651866286738689819A81AB81BC8189
:104B200084879587A687B7872FBF1092160B1092A0
:104B3000170B1092180B1092190BEAE1FBE0108290
:104B400011821282138214821582168217821086B5
:104B500011861286138614861586168617860F9080
:104B60000F900F900F90DF91CF911F910F91FF90B9
:104B7000EF90DF90CF90BF90AF909F908F907F90FD
:104B80006F905F904F903F902F9008954F925F925B
:104B90006F927F928F929F92AF92BF92CF92DF924D
:104BA000EF92FF920F931F93CF93DF93CDB7DEB7B2
:104BB0006A970FB6F894DEBF0FBECDBF9A8F898F6C
:104BC0004A015B013901DC01D8966D917D918D918F
:104BD0009C91DB970E945C776B017C01A50194019D
:104BE0000E9493730E94927B0E94277C4B015C0180
:104BF000A3019801C701B6010E9493730E94927BA2
:104C00000E94277C8D829E82AF82B8862D813E8154
:104C10004F815885283731054105510540F428E773
:104C200030E040E050E02D833E834F835887698316
:104C30007A838B839C8389819A81AB81BC818837FD
:104C40009105A105B10540F428E730E040E050E0CF
:104C500029833A834B835C83E98DFA8DEC5BFF4FAC
:104C600080819181A281B3818D879E87AF87B88B28
:104C7000BC01CD010E945E7769877A878B879C870C
:104C80006D817E818F8198850E945C77698B7A8B9C
:104C90008B8B9C8B20E030E0A90169857A858B8520
:104CA0009C850E945777882309F439C1A701960192
:104CB000C701B6010E9493734B015C0129893A89AF
:104CC0004B895C89CA01B9010E9493739B01AC01B5
:104CD000C501B4010E94B37A4B015C0129853A8574
:104CE0004B855C85CA01B9010E94B47A9B01AC0175
:104CF000C501B4010E94AE7B0E94927B0E94207C81
:104D00002B013C016D857E858F85988990958095D6
:104D1000709561957F4F8F4F9F4F0E945E774B013B
:104D20005C0169817A818B819C810E945C776D87AF
:104D30007E878F87988B20E030E0A901C501B40100
:104D40000E945777882309F4EEC02D853E854F8554
:104D50005889CA01B9010E9493736D8B7E8B8F8B2A
:104D6000988FA7019601C701B6010E9493739B011A
:104D7000AC016D897E898F89988D0E94B37A6B0111
:104D80007C01A5019401C501B4010E94B47A9B0184
:104D9000AC01C701B6010E94AE7B0E94567CA98D72
:104DA000BA8D50968D909D90AD90BC9053977501A3
:104DB0006401C418D508E608F7080E94207CC61ACA
:104DC000D70AE80AF90AF7FE67C020E030E0A90137
:104DD00069857A858B859C850E945777882309F49D
:104DE000A6C0C501B4010E945C776B017C012985D6
:104DF0003A854B855C85CA01B9010E94B47A9B0152
:104E0000AC01C701B6010E9493736B017C01298933
:104E10003A894B895C89CA01B9010E9493739B014D
:104E2000AC01C701B6010E94B37A6B017C012D85EC
:104E30003E854F855889CA01B9010E9493739B0131
:104E4000AC01C701B6010E94B47A6B017C0120E07D
:104E500030E040E850E469857A858B859C850E9426
:104E600093739B01AC01C701B6010E94AE7B0E9407
:104E7000927B0E94207C2B013C0177FE03C0412CD9
:104E8000512C3201481459046A047B0410F02401A7
:104E90003501C12CD12C76018FB7F894E98DFA8DAC
:104EA000E45BFF4F9081911122C0E98DFA8D448A15
:104EB000558A668A778AC40CD51CE61CF71CDF016C
:104EC000C08ED18EE28EF38E2D813E814F8158852A
:104ED00024AF35AF46AF57AFA05CBF4F29813A81B1
:104EE0004B815C812D933D934D935C9313978FBFC2
:104EF0006A960FB6F894DEBF0FBECDBFDF91CF919B
:104F00001F910F91FF90EF90DF90CF90BF90AF90E7
:104F10009F908F907F906F905F904F90089560E08A
:104F200070E0CB01E9CE60E070E0CB0136CF60E00D
:104F300070E0CB019CCF2F923F924F925F926F9285
:104F40007F928F929F92AF92BF92CF92DF92EF9219
:104F5000FF920F931F93CF93DF9300D000D0CDB774
:104F6000DEB78C014B011A01DC0113968C9113976B
:104F7000813009F0CAC011968C9181FFC6C082FDB4
:104F8000B0C06101D80118964D915D916D917C91F1
:104F90001B97C114D10409F41AC159968D919C91A3
:104FA0005A97FC0174802FEF270D2A013B0139E04D
:104FB00076946794579447943A95D1F7722E74205B
:104FC0007A01F1E0FF22711020C0E114F104E9F44C
:104FD00014964D915D916D917C91179741155105F6
:104FE0006105710509F097C055968D919D910D90C1
:104FF000BC91A02D0097A105B10509F0A5C0C8017D
:105000000E94F213882309F480C080E092E08E1998
:105010009F0956018C159D0508F45C01D80159962D
:105020004D915C915A9714968D919D910D90BC91E4
:10503000A02D0297A109B109FA01258504C0880FA6
:10504000991FAA1FBB1F2A95D2F7468557856089ED
:105050007189840F951FA61FB71F9C01AD01270DF5
:10506000311D411D511D29013A01A11432E0B30641
:1050700009F078C08091EC0E9091ED0EA091EE0EAB
:10508000B091EF0E481659066A067B0669F4109235
:10509000F40E8FEF9FEFDC018093EC0E9093ED0EFA
:1050A000A093EE0EB093EF0E9401B301A201809194
:1050B000F50E9091F60E0E94FB0E882331F1F80157
:1050C00080859185A285B3858A0D9B1DA11DB11D8B
:1050D00080879187A287B3878A0C9B1CCA18DB083C
:1050E00051CFF801418952896389748980859185FE
:1050F000A285B385481759076A077B0709F441CF92
:10510000C8010E94591381113CCF81E0D8018C93D2
:105110008FEF9FEF72C09E012F5F3F4F0E941C12C6
:10512000882399F389819A81AB81BC81F801218D13
:10513000328DF9012789203169F4883FFFEF9F07FD
:10514000A105B10508F05BCFF80184839583A683A0
:10515000B7835BCF883F2FEF9207A2072FE0B207FC
:1051600098F34DCFE114F10451F5D80118964D9103
:105170005D916D917C911B9751968D919D910D90B4
:10518000BC91A02D481759076A077B07C0F00E9401
:10519000620F882309F4B9CF81E08093F40E409226
:1051A000EC0E5092ED0E6092EE0E7092EF0EA50195
:1051B000B401C7018451934F0E94D17E80CF41E05A
:1051C000C301B2010E94FC0F8111F1CF9ECFF80103
:1051D00081899289A389B48984179507A607B7079F
:1051E00038F48181418B528B638B748B806881830F
:1051F000F801818183FD18C0C1010F900F900F90BD
:105200000F90DF91CF911F910F91FF90EF90DF9062
:10521000CF90BF90AF909F908F907F906F905F9056
:105220004F903F902F900895C8010E94071581115B
:10523000E3CF6BCFCF93DF931F92CDB7DEB76983F8
:1052400041E050E0BE016F5F7F4F04960E949B27B4
:105250000F90DF91CF9108952F923F924F925F92DE
:105260006F927F928F929F92AF92BF92CF92DF9276
:10527000EF92FF920F931F93CF93DF9300D000D054
:10528000CDB7DEB79C838B834B017A01DC0113968B
:105290008C91811119C08FEF9FEF0F900F900F909D
:1052A0000F90DF91CF911F910F91FF90EF90DF90C2
:1052B000CF90BF90AF909F908F907F906F905F90B6
:1052C0004F903F902F900895EB81FC81818180FF6A
:1052D000E2CF01891289238934894085518562850D
:1052E0007385C701B0E0A0E028013901441A550ACE
:1052F000660A770A84159505A605B70518F07801A2
:10530000E41AF50A67018B819C8104969A8389834C
:10531000612C32E0732EC114D10409F4B7C0AB8103
:10532000BC8118964D915D916D917C911B975A01AE
:10533000B1E0BB22EB81FC81818D928D1A012B01A2
:1053400029E056944794379427942A95D1F72381DE
:10535000223091F5DC015A966D917D918D919C9151
:105360005D97620D731D841D951D83010A191B092C
:10537000C016D10608F486010115B2E01B0771F4CE
:105380002091EC0E3091ED0E4091EE0E5091EF0E0B
:10539000621773078407950709F059C040E00E941F
:1053A000FC0F882309F477CFB5016451734FA8012E
:1053B000C4010E94D17E57C0FC01148111501221FA
:1053C000A114B10481F411110EC0452B462B472BBB
:1053D00079F5EB81FC8185899689A789B08D8483D5
:1053E0009583A683B783AB81BC815996ED91FC91DF
:1053F0005A9714966D917D918D919C91179762505B
:10540000710981099109258504C0660F771F881FDE
:10541000991F2A95D2F72685378540895189620FD1
:10542000731F841F951F610F711D811D911D9DCFDD
:10543000AB81BC8114964D915D916D917C911797D4
:1054400029813A810E941C128111CDCF24CF940171
:10545000AB01BC018091F50E9091F60E0E94A30F56
:10546000882309F418CF800E911EEB81FC81808582
:105470009185A285B385800F911FA11DB11D8087E5
:105480009187A287B387C01AD10A45CFC70105CF3C
:10549000DF92EF92FF920F931F93CF93DF938C01D4
:1054A000EB017A018DE0D82E40E250E0BE01C80148
:1054B0000E942C298032910571F021E0892B09F49A
:1054C00020E0822F8195DF91CF911F910F91FF9066
:1054D000EF90DF9008952881222309F43FC0253EF4
:1054E00019F32E3209F33B853F733F3099F5E114F0
:1054F000F10481F14A8D5B8D452B61F52F713FEFF2
:10550000320F323038F52150330BD29EC001D39E7A
:10551000900D1124F701E80FF91F298120832B81B9
:1055200021832D8122832F812383298524832E8526
:105530002583288926832A8927832C8920872E89F9
:105540002187288D22872C8D23872E8D24872881E3
:1055500026FD15862B8523FDA7CFB5CF80E0B3CFE1
:105560004F925F926F927F92AF92BF92CF92DF92F3
:10557000EF92FF920F931F93CF93DF931F92CDB7BC
:10558000DEB78C017B015A01C22EDB0159968D9149
:105590009C91F801928F818FCB010E94ED13712CA9
:1055A000F70180859185A285B385418952896389F8
:1055B000748984179507A607B70708F052C055E00D
:1055C000B695A795979587955A95D1F7F82FFF70BF
:1055D000DF2ED70113968C91823010F480E0DBC06F
:1055E00041E050E0BE016F5F7F4FC7010E942C2950
:1055F0000197A1F7F70180859185A285B3854F9624
:10560000A11DB11D80879187A287B387F0E2DF9E3D
:10561000B00111246451734F61157105F9F2DB017A
:105620008C91882341F0853E09F04CC0772029F009
:1056300077247394B5CF71100EC08091EC0E9091C9
:10564000ED0EA091EE0EB091EF0EF80184879587D4
:10565000A687B787D08ADB018C918111E9CF7724A7
:1056600073948C2D8274823409F0B8CF772009F4BA
:10567000A2C0F801D08861E0C8010E94ED14009733
:1056800009F4ACCF20E2DC011D922A95E9F72BE06A
:10569000F501DC0101900D922A95E1F721E238E253
:1056A000FC01318B208B40E058E057874687338BD5
:1056B000228B318F208F578B468B0E94620F811176
:1056C00009C08CCF4BE050E0C5010E94C47E892BFD
:1056D00009F066CFF0E2DF9ED00111249D01245134
:1056E000334FF9018385817121F08C2D827109F08E
:1056F000FCC0F801818D928D4091EC0E5091ED0E21
:105700006091EE0E7091EF0E44875587668777871C
:10571000D08AFD01E451F34F44885588712C612CE7
:10572000320155244424D80155964D925D926D92D4
:105730007C925897428D538D70E060E04429552942
:105740006629772955964D935D936D937C93589771
:10575000D9011B962C91287109F0B9C0848D958DC3
:10576000A68DB78DF801818B928BA38BB48B81E0D2
:1057700083838C2D8F70F8018183148215821682A9
:105780001782108611861286138681E0C4FE03C03C
:10579000C8010E94DB1A0F90DF91CF911F910F91EA
:1057A000FF90EF90DF90CF90BF90AF907F906F9081
:1057B0005F904F900895D70113968C911397823084
:1057C00009F40CCF51968D919D910D90BC91A02D17
:1057D000803E9F4FAF41B10508F000CFC7010E9446
:1057E000F213882309F4FACE0E94620F882309F489
:1057F000F5CED7015996ED91FC915A9714964D909C
:105800005D906D907C901797B2E04B1A510861083B
:105810007108858504C0440C551C661C771C8A954C
:10582000D2F786859785A089B189480E591E6A1ED0
:105830007B1E81E08093F40E4092EC0E5092ED0EB0
:105840006092EE0E7092EF0EECEEFCE080E092E0E3
:10585000DF019C011D9221503040E1F7DD24D394FB
:10586000D7015996ED91FC918481D81698F42CEECD
:105870003CE0B301A2014D0D511D611D711D8091D0
:10588000F50E9091F60E0E94FB0E882309F4A6CE29
:10589000D394E6CF258580E092E0A0E0B0E004C09C
:1058A000880F991FAA1FBB1F2A95D2F7F7014189BC
:1058B000528963897489840F951FA61FB71F818B36
:1058C000928BA38BB48B8CEE9CE0D12CDBCE203161
:1058D00061F498012F5E3F4F0E949F12882329F0A8
:1058E00084E0D80113968C9344CFD80113961C9270
:1058F00075CE2F923F924F925F926F927F928F92CE
:105900009F92AF92BF92CF92DF92EF92FF920F934E
:105910001F93CF93DF93CDB7DEB7C254D1090FB633
:10592000F894DEBF0FBECDBF4C015B016A01322E81
:1059300019821C821C8E1F8E672B21F510E0CE0170
:105940004C960E947219CE0101960E947219812F05
:10595000CE5BDF4F0FB6F894DEBF0FBECDBFDF9139
:10596000CF911F910F91FF90EF90DF90CF90BF905C
:10597000AF909F908F907F906F905F904F903F90EF
:105980002F900895FC0183818111D8CFFA01808185
:105990008F32C1F4CA016C010196F60120812F32C9
:1059A000D1F3F50183818250823060F0618D728D78
:1059B000CE014C960E9409138E01045E1F4F811187
:1059C00002C0BCCF8501CE0101967C013C012E01B5
:1059D0009CE1490E511C2396EFAE23972F2CFE011C
:1059E000F796CF010B96AF0120E22193E817F90754
:1059F000D9F7960190E067E0D9018D91882349F1AC
:105A00008F3239F1282F8E3239F46A3009F496CF6B
:105A100098E06AE09D01F0CFE8E4F6E034913323AA
:105A200021F031968313FACF89CF691708F486CF16
:105A30003FED380F3E3508F081CF3FE9380F3A315E
:105A400010F420EE280FFA01E90FF11D20839F5F6B
:105A5000E1CF8FA9803209F471CF6901F90180810A
:105A60002F5F3F4F8F32C9F38823D9F021E0B8016F
:105A7000C7010E94B02A882309F460CF0A151B05CC
:105A800019F0C8010E943C15942D852D6E147F04D9
:105A900021F023969FAD2397822D8701E92EF82EC2
:105AA0009ECF232DB801C4010E94B02A182F47CFE2
:105AB0002F923F924F925F926F927F928F929F921E
:105AC000AF92BF92CF92DF92EF92FF920F931F930C
:105AD000CF93DF93CDB7DEB7C057D1090FB6F89497
